{
  "contractName": "TokenAuction",
  "abi": [
    {
      "constant": true,
      "inputs": [],
      "name": "nonFungibleContract",
      "outputs": [
        {
          "name": "",
          "type": "address"
        }
      ],
      "payable": false,
      "stateMutability": "view",
      "type": "function"
    },
    {
      "inputs": [
        {
          "name": "_nftAddress",
          "type": "address"
        }
      ],
      "payable": false,
      "stateMutability": "nonpayable",
      "type": "constructor"
    },
    {
      "constant": true,
      "inputs": [
        {
          "name": "_tokenId",
          "type": "uint256"
        }
      ],
      "name": "getAuction",
      "outputs": [
        {
          "name": "seller",
          "type": "string"
        },
        {
          "name": "price",
          "type": "string"
        }
      ],
      "payable": false,
      "stateMutability": "view",
      "type": "function"
    },
    {
      "constant": false,
      "inputs": [
        {
          "name": "_tokenId",
          "type": "uint256"
        },
        {
          "name": "_price",
          "type": "uint128"
        }
      ],
      "name": "createAuction",
      "outputs": [],
      "payable": false,
      "stateMutability": "nonpayable",
      "type": "function"
    }
  ],
  "bytecode": "0x6060604052341561000f57600080fd5b6040516020806105f383398101604052808051906020019091905050806000806101000a81548173ffffffffffffffffffffffffffffffffffffffff021916908373ffffffffffffffffffffffffffffffffffffffff160217905550506105788061007b6000396000f300606060405260043610610057576000357c0100000000000000000000000000000000000000000000000000000000900463ffffffff16806378bd79351461005c5780637a906be014610164578063dd1b7a0f146101a2575b600080fd5b341561006757600080fd5b61007d60048080359060200190919050506101f7565b604051808060200180602001838103835285818151815260200191508051906020019080838360005b838110156100c15780820151818401526020810190506100a6565b50505050905090810190601f1680156100ee5780820380516001836020036101000a031916815260200191505b50838103825284818151815260200191508051906020019080838360005b8381101561012757808201518184015260208101905061010c565b50505050905090810190601f1680156101545780820380516001836020036101000a031916815260200191505b5094505050505060405180910390f35b341561016f57600080fd5b6101a060048080359060200190919080356fffffffffffffffffffffffffffffffff16906020019091905050610345565b005b34156101ad57600080fd5b6101b56104d1565b604051808273ffffffffffffffffffffffffffffffffffffffff1673ffffffffffffffffffffffffffffffffffffffff16815260200191505060405180910390f35b6101ff6104f6565b6102076104f6565b61020f61050a565b600160008581526020019081526020016000206040805190810160405290816000820160009054906101000a900473ffffffffffffffffffffffffffffffffffffffff1673ffffffffffffffffffffffffffffffffffffffff1673ffffffffffffffffffffffffffffffffffffffff1681526020016001820160009054906101000a90046fffffffffffffffffffffffffffffffff166fffffffffffffffffffffffffffffffff166fffffffffffffffffffffffffffffffff168152505090506040805190810160405280600381526020017f666f6f000000000000000000000000000000000000000000000000000000000081525092506040805190810160405280600381526020017f6261720000000000000000000000000000000000000000000000000000000000815250915050915091565b61034d61050a565b6000809054906101000a900473ffffffffffffffffffffffffffffffffffffffff1673ffffffffffffffffffffffffffffffffffffffff1663b2e6ceeb846040518263ffffffff167c010000000000000000000000000000000000000000000000000000000002815260040180828152602001915050600060405180830381600087803b15156103dc57600080fd5b6102c65a03f115156103ed57600080fd5b50505060408051908101604052803373ffffffffffffffffffffffffffffffffffffffff168152602001836fffffffffffffffffffffffffffffffff168152509050806001600085815260200190815260200160002060008201518160000160006101000a81548173ffffffffffffffffffffffffffffffffffffffff021916908373ffffffffffffffffffffffffffffffffffffffff16021790555060208201518160010160006101000a8154816fffffffffffffffffffffffffffffffff02191690836fffffffffffffffffffffffffffffffff160217905550905050505050565b6000809054906101000a900473ffffffffffffffffffffffffffffffffffffffff1681565b602060405190810160405280600081525090565b6040805190810160405280600073ffffffffffffffffffffffffffffffffffffffff16815260200160006fffffffffffffffffffffffffffffffff16815250905600a165627a7a72305820c390d18a0fa470980d1e9aa800562a458205d03eb10f1213ef4e534c328993cf0029",
  "source": "pragma solidity ^0.4.18;\n\nimport \"zeppelin-solidity/contracts/token/ERC721/ERC721.sol\";\n\ncontract TokenAuction {\n  ERC721 public nonFungibleContract;\n\n  struct Auction {\n    address seller;\n    uint128 price;\n  }\n\n  mapping (uint256 => Auction) tokenIdToAuction;\n\n  function TokenAuction( address _nftAddress ) public {\n    nonFungibleContract = ERC721(_nftAddress);\n  }\n\n  function getAuction( uint256 _tokenId ) public view returns(string seller, string price){\n    Auction memory _auction = tokenIdToAuction[_tokenId];\n\n    seller = 'foo';\n    price = 'bar';\n  }\n\n  function createAuction( uint256 _tokenId, uint128 _price ) public {\n    nonFungibleContract.takeOwnership(_tokenId);\n    Auction memory _auction = Auction({\n       seller: msg.sender,\n       price: uint128(_price)\n    });\n    tokenIdToAuction[_tokenId] = _auction;\n  }\n}\n",
  "sourcePath": "/Users/satansdeersatansdeer/Workspace/gradient-token-tutorial/contracts/TokenAuction.sol",
  "compiler": {
    "name": "solc",
    "version": "0.4.19+commit.c4cbbb05.Emscripten.clang"
  },
  "schemaVersion": "2.0.0",
  "updatedAt": "2018-03-20T06:18:44.756Z"
}